:020000040800F2
:1000000000000220FD0A0008450B0008450B00080F
:10001000450B0008450B0008450B000800000000D8
:10002000000000000000000000000000450B000878
:10003000450B000800000000450B0008450B0008B8
:10004000450B0008450B0008450B0008450B000850
:10005000450B0008450B0008450B0008450B000840
:10006000450B0008450B0008450B0008450B000830
:10007000450B0008450B0008450B0008450B000820
:10008000450B0008450B0008450B0008450B000810
:10009000450B0008450B0008450B0008450B000800
:1000A000450B0008450B0008450B0008450B0008F0
:1000B000450B0008450B0008450B0008450B0008E0
:1000C000450B0008450B0008450B0008450B0008D0
:1000D000450B0008450B0008450B0008450B0008C0
:1000E000450B0008450B0008450B0008450B0008B0
:1000F000450B0008450B0008450B0008450B0008A0
:10010000450B0008450B0008450B0008450B00088F
:10011000450B0008450B0008450B0008450B00087F
:10012000450B0008450B0008450B0008450B00086F
:10013000450B0008450B0008450B0008450B00085F
:10014000450B0008450B0008450B0008450B00084F
:10015000450B0008450B0008450B0008450B00083F
:10016000450B0008450B0008450B0008450B00082F
:10017000450B0008450B0008450B0008450B00081F
:08018000450B0008450B0008C7
:10018800A3F5803A704700BF174B002B08BF134BED
:100198009D46FFF7F5FF00218B460F461348144A8A
:1001A800121A00F003FD0E4B002B00D098470D4BA0
:1001B800002B00D098470020002104000D000D48B6
:1001C800002802D00C48AFF3008000F0CBFC2000E0
:1001D800290000F073FC00F0B3FC00BF0000080029
:1001E8000000000000000000000000006400002083
:1001F800D40100200000000000000000354A364805
:100208001368002143F0010382B013609160136802
:1002180023F0847323F4803313605060136823F44D
:1002280080231360D16000910191136843F48033F7
:10023800136003E0009BB3F5A06F09D0136803F4C3
:1002480000330193009B01330093019B002BF1D0F5
:10025800204B1B6813F4003318BF01230193019B43
:10026800012B05D01D4B4FF000629A6002B0704719
:10027800184B1B491A6C1B4842F080521A640A68D2
:1002880042F480420A609A689A609A6842F400428E
:100298009A609A6842F4A0529A6058601A6842F0CC
:1002A80080721A601A689201FCD50F4A40F2056103
:1002B8001160996821F003019960996841F0020181
:1002C800A2F580629960936803F00C03082BFAD1B9
:1002D800C8E700BF003802401030002400ED00E0FD
:1002E8000070004008544007003C0240164A9368DA
:1002F80003F00C03042B25D0082B0AD0134B124A09
:10030800134892681349C2F30312825CD3400B600E
:1003180070475368516813F4800F536814BF0E4A2E
:100328000A4AC3F3881301F03F01B2FBF1F202FB62
:1003380003F3054A5268C2F3014201325200B3FB8B
:10034800F2F3DCE7044BDAE7003802400024F4005B
:10035800301400080000002000127A000A4B0B48F5
:100368001A68002142F001021A6099601A6822F0A6
:10037800847222F480321A6058601A6822F480224B
:100388001A60D960704700BF00380240103000245E
:10039800024B00229A709870704700BF00380240E4
:1003A80082B000230A4A0193136813F4003F019BAB
:1003B80003F101030193019B05D0054B1868C0F3B5
:1003C800404002B07047B3F5A06FEDD1F5E700BF2C
:1003D80000380240034A136823F0F80343EAC003D5
:1003E8001360704700380240014B1860704700BF27
:1003F80000004742084B0022012883F8702083F848
:10040800702006D0042800D07047052283F8702099
:10041800704783F87000704700380240014BC3F8FA
:10042800800E70470000474210B4019C40EA046007
:1004380008435B0804495DF8044B40EA8210013B1D
:1004480040EA03404860704700380240014B186694
:10045800704700BF00004742034B090741EA80117B
:10046800C3F88410704700BF00380240014B9866FB
:10047800704700BF00004742014BD864704700BF77
:1004880000004742034A936823F0EC630B43184388
:100498009060704700380240034A936823F078431D
:1004A8000B4318439060704700380240034A936832
:1004B80023F0030303439360704700BF00380240F2
:1004C800024B986800F00C00704700BF00380240EB
:1004D800034A936823F0F00303439360704700BF17
:1004E80000380240034A936823F4E05303439360BF
:1004F800704700BF00380240034A936823F4604302
:1005080043EAC00393607047003802401E4A93686C
:1005180003F00C03042B10B434D0082B19D01B4B58
:10052800194A036094681A49C4F303140C5DE34044
:1005380043609468C4F382240C5D23FA04F4846055
:1005480092685DF8044BC2F342328A5CD340C360C0
:1005580070475368516813F4800F536814BF0D4AED
:100568000A4AC3F3881301F03F01B2FBF1F202FB20
:1005780003F3054A5268C2F3014201325200B3FB49
:10058800F2F3CDE7034BCBE7003802400024F40038
:100598004014000800127A0000F44073B3F5407F5D
:1005A80009D108498A6820F0704323F4407322F483
:1005B800F81213438B60034B1A6FC0F30B00104300
:1005C8001867704700380240014BC3F83C0E70476B
:1005D80000004742014BC3F8400E704700004742F5
:1005E800014BC3F85C01704700004742044A136B93
:1005F80011B103431363704723EA00031363704781
:1006080000380240044A536B11B1034353637047E7
:1006180023EA00035363704700380240044A936B8F
:1006280011B103439363704723EA00039363704750
:1006380000380240044A136C11B103431364704735
:1006480023EA00031364704700380240044A536CDD
:1006580011B103435364704723EA0003536470479E
:1006680000380240044A136911B10343136170470B
:1006780023EA00031361704700380240044A5369B3
:1006880011B103435361704723EA00035361704774
:1006980000380240044A936911B1034393617047DB
:1006A80023EA00039361704700380240044A136A42
:1006B80011B103431362704723EA000313627047C2
:1006C80000380240044A536A11B103435362704729
:1006D80023EA00035362704700380240044A136D4E
:1006E80011B103431365704723EA0003136570478C
:1006F80000380240044A536D11B1034353657047F3
:1007080023EA00035365704700380240044A936D9A
:1007180011B103439365704723EA0003936570475B
:1007280000380240044A136E11B103431366704740
:1007380023EA00031366704700380240044A536EE8
:1007480011B103435366704723EA000353667047A9
:1007580000380240044A537B11B103435373704776
:1007680023EA000353737047003802404309012B02
:100778000BD0022B094B0CBF1B6F5B6F00F01F00E7
:1007880023FA00F000F001007047044B1B6800F0EA
:100798001F0023FA00F000F0010070470038024003
:1007A800024A536F43F08073536770470038024022
:1007B800034BDB68184214BF01200020704700BFBC
:1007C80000380240014B9873704700BF0038024060
:1007D80008B53C4B984222D03B4B984229D03B4B22
:1007E800984230D03A4B98420FD03A4B984234D086
:1007F800394B98423BD0394B984242D0384B9842BB
:1008080055D0384B984246D008BD01210820FFF743
:1008180029FFBDE8084000210820FFF723BF012178
:100828000846FFF71FFFBDE8084000210120FFF739
:1008380019BF01210220FFF715FFBDE8084000217C
:100848000220FFF70FBF01210420FFF70BFFBDE8CF
:10085800084000210420FFF705BF01211020FFF701
:1008680001FFBDE8084000211020FFF7FBBE012171
:100878002020FFF7F7FEBDE8084000212020FFF701
:10088800F1BE01214020FFF7EDFEBDE80840002140
:100898004020FFF7E7BE01214FF48070FFF7E2FE2A
:1008A800BDE8084000214FF48070FFF7DBBE01214E
:1008B8008020FFF7D7FEBDE8084000218020FFF721
:1008C800D1BE00BF00000240000402400008024000
:1008D800000C0240001002400014024000180240C0
:1008E800001C02400020024000222DE9F047134678
:1008F8000D684FF0010E032604E00133102B02F1BE
:10090800020239D00EFA03FC3CEA0504F5D1076867
:1009180006FA02F427EA040707600F79D0F800A066
:1009280007FA02F9013F49EA0A09012FA046C0F86F
:1009380000906FEA040411D887683C4084604C79C1
:10094800876894403C438460446824EA0C0444600B
:100958008C7947689C40A4B23C434460C46824EA4C
:100968000804C460CC79C768944001333C43102B19
:10097800C46002F10202C5D1BDE8F0874FF6FF72EC
:100988000023C0E90023704782B04FF480330193FD
:10099800019B0B430193019BC361C161019BC3612F
:1009A800C3690193C369019302B07047036919428F
:1009B80014BF012000207047006980B2704700BF53
:1009C8004369194214BF012000207047406980B272
:1009D800704700BF01837047418370470AB10183A4
:1009E80070474183704700BF416170474369594070
:1009F80041617047CB0800EB830001F00701036AEF
:100A080089004FF00F0C0CFA01FC23EA0C03036277
:100A1800036A8A401A430262704700BFC414000880
:100A2800000000206400002064000020D4010020A1
:100A38000348044B834202D0034B03B11847704765
:100A48006400002064000020000000000548064BF8
:100A58001B1AD90F01EBA301491002D0034B03B1B4
:100A68001847704764000020640000200000000060
:100A780010B5064C237843B9FFF7DAFF044B13B1DE
:100A88000448AFF300800123237010BD64000020E8
:100A9800000000009814000808B5054B1BB1054973
:100AA8000548AFF30080BDE80840FFF7CFBF00BF9F
:100AB8000000000068000020981400080A490B4A4A
:100AC8000B6B43F004030B63136843F080631360FC
:100AD8005169074B41F400515161516921F40051AA
:100AE8005161013BFDD1F3E70038024000080240A4
:100AF80020BF0200002103E00B4B5B584350043138
:100B08000A480B4B42189A42F6D30A4A02E00023DD
:100B180042F8043B084B9A42F9D3FFF76FFB00F009
:100B280021F8FFF7CBFF7047C4140008000000202D
:100B38006400002064000020D4010020FEE70000CB
:100B480008B5064B044613B10021AFF30080044BEF
:100B58001B6803B19847204600F0A8FC000000007D
:100B6800B801002070B50D4D0D4C641BA410002673
:100B7800A64209D10B4D0C4C00F08CFC641BA41050
:100B88000026A64205D170BD55F8043B98470136AA
:100B9800EEE755F8043B98470136F2E7BC14000825
:100BA800BC140008BC140008C01400080244034622
:100BB800934200D1704703F8011BF9E7002310B5F1
:100BC8000446C0E90033C0E9043383608181436689
:100BD800C2818361194608225C30FFF7E7FF0D4B9D
:100BE80063620D4BA3620D4BE3620D4B23630D4B08
:100BF80024629C4206D003F16802944202D0D033AA
:100C08009C4205D104F15800BDE8104000F09BB9A2
:100C180010BD00BF190E00083F0E0008770E00082F
:100C28009B0E000880000020024A0349034800F098
:100C380059B900BF080000206D10000818000020F6
:100C480041680C4B994210B5044601D000F00AFAED
:100C5800A168094B994202D0204600F003FAE168E6
:100C6800064B994204D02046BDE8104000F0FAB97E
:100C780010BD00BF80000020E800002050010020C7
:100C880008B54B6EDA0705D48B899B0502D4886DAD
:100C980000F05DF9002008BD08B54B6EDA0705D4F1
:100CA8008B899B0502D4886D00F057F9002008BD98
:100CB80010B50B4B0B4C0C4A1A602046002204213D
:100CC800FFF77CFF04F1680001220921FFF776FF96
:100CD80004F1D0000222BDE810401221FFF76EBFD8
:100CE800B801002080000020310C0008014800F005
:100CF8002EB900BFC3010020014800F02EB900BF83
:100D0800C3010020F8B50746FFF7F0FF234B1B6827
:100D18000BB9FFF7CDFF224ED6E90134013B0FD5C1
:100D28003568002D37D14FF4D671384600F0F8F900
:100D3800044628BB3060FFF7DFFF0C233B601BE055
:100D4800B4F90C50D5B9174BE36004F15800656647
:100D580000F0F9F8FFF7D0FFC4E90155C4E90455DC
:100D68002560A5610822294604F15C00FFF71EFFF3
:100D7800C4E90D55C4E912552046F8BD6834CDE7DD
:100D88000423056043600C30A0604FF4D0722946FC
:100D9800FFF70CFF34603668BEE700BFB8010020DB
:100DA800080000200100FFFF10B50446FFF79EFF72
:100DB800236A1BB1BDE81040FFF79EBF044B2362B6
:100DC800044B1B68002BF5D1FFF772FFF2E700BF59
:100DD800490C0008B801002008B5FFF787FFBDE8F7
:100DE8000840024A0249002000F07CB808000020B0
:100DF800890C000808B5044A0449002000F072F87C
:100E0800BDE80840FFF778BF08000020A10C0008E3
:100E180010B50C46B1F90E1000F052F80028ABBF1F
:100E2800636DA3891B1823F48053ACBF6365A3814A
:100E380010BD002070472DE9F0411F468B89DB0566
:100E480005460C46164605D5B1F90E1002230022B8
:100E580000F024F8A389B4F90E1023F48053A38179
:100E680032463B462846BDE8F04100F059B810B577
:100E78000C46B1F90E1000F011F8431CA38915BFF8
:100E8800606523F4805343F48053A38118BFA38182
:100E980010BDB1F90E1000F0C3B9000038B5074D08
:100EA80004460846114600222A601A4600F094FAC1
:100EB800431C02D12B6803B1236038BDCC0100204C
:100EC80038B5074D04460846114600222A601A46DE
:100ED80000F08AFA431C02D12B6803B1236038BDA5
:100EE800CC0100202DE9F843074688461446002621
:100EF800D4E90195B9F1010905D52468002CF7D189
:100F08003046BDE8F883AB89012B07D9B5F90E3017
:100F1800013303D029463846C04706436835E9E718
:100F280038B5074D04460846114600222A601A467D
:100F380000F070FA431C02D12B6803B1236038BD5E
:100F4800CC01002070477047704770477047704762
:100F5800012070470120704770477047B1F90C2095
:100F68002DE9F041160705460C4654D44B68002B72
:100F780002DC0B6C002B48DDE66A002E45D000230E
:100F880012F480522F68216A2B6030D0626DA389D9
:100F9800590705D56368D21A636B0BB1236CD21A53
:100FA8000023E66A216A2846B047431CA38906D174
:100FB80029681D292BD82A4ACA40D60727D50022D6
:100FC8006260D9042269226004D5421C01D12B68D1
:100FD80003B96065616B2F60B9B104F144039942AC
:100FE80002D0284600F0A6F9002363630DE0012330
:100FF8002846B0470246501CC9D12B68002BC6D0E2
:101008001D2B01D0162B1ED12F60002022E043F0AB
:1010180040031BB21BE00F69002FF6D093070E6840
:1010280008BF4B690F6018BF0023A6EB07088B6049
:10103800B8F1000FE9DD216AA66A43463A46284618
:10104800B047002808DCB4F90C3043F04003A38112
:101058004FF0FF30BDE8F0810744A8EB0008E7E750
:101068000100402038B50B6905460C4613B9002528
:10107800284638BD18B1036A0BB9FFF795FEB4F9D5
:101088000C30002BF3D0626ED00704D4990502D43B
:10109800A06DFFF75CFF28462146FFF75FFF636EF0
:1010A800DA070546E4D4A3899B05E1D4A06DFFF7D0
:1010B80054FFDDE7014620B9044A05490548FFF712
:1010C80011BF054B1868FFF7CDBF00BF080000200F
:1010D8006D100008180000201400002070B50F4E95
:1010E8000C463168054611B900F014F93060214604
:1010F800284600F00FF9431C03D14FF0FF34204677
:1011080070BDC41C24F00304A042F8D0211A28465C
:1011180000F000F90130F2D1EFE700BFC401002070
:101128002DE9F843CD1C25F0030508350C2D38BFF3
:101138000C25002D064601DBA94204D90C23336097
:101148000020BDE8F883DFF8D48000F0D7F8D8F89D
:1011580000301C4644BB29463046FFF7BFFF431CFE
:10116800044658D1D8F800402746002F43D1002C18
:101178004BD023683946304604EB030900F0CAF81F
:10118800814542D121686D1A29463046FFF7A6FFEE
:1011980001303AD023682B442360D8F800305A68CD
:1011A80062BBC8F800700FE02268521B20D40B2ADB
:1011B80017D96119A342256018BF5960636808BF31
:1011C800C8F8001062514B60304600F09DF804F1F9
:1011D8000B00231D20F00700C21A1CBF1B1AA350C6
:1011E800AFE76268A3420CBFC8F800205A60EBE77B
:1011F80023466468AEE73C467F68B6E71A465B68F4
:10120800A342FBD100235360DEE70C233360304652
:1012180000F07AF894E70560D6E700BFC80100201F
:1012280038B5064D0023044608462B6000F0CCF87C
:10123800431C02D12B6803B1236038BDCC010020C8
:101248002D4B1B68834270B5044653D0C3691BB34A
:10125800DB6863B10025E369DB685959B1B9043526
:10126800802DF8D1E3692046D96800F063F8E36976
:10127800196811B1204600F05DF8E3699D685DB119
:10128800294620462D6800F055F8F8E70E682046F4
:1012980000F050F83146E1E7616911B1204600F0ED
:1012A80049F8E16911B1204600F044F8216B11B109
:1012B800204600F03FF8616B11B1204600F03AF883
:1012C800A16B11B1204600F035F8A16C11B1204690
:1012D80000F030F8616C11B1204600F02BF8E16A9B
:1012E80011B1204600F026F8236A1BB12046BDE85C
:1012F8007040184770BD00BF140000200148FFF778
:1013080026BE00BFC00100200148FFF726BE00BF6F
:10131800C001002038B5064D0023044608462B605E
:1013280000F06AF8431C02D12B6803B1236038BD72
:10133800CC01002038B50546002941D051F8043CBD
:101348000C1F002BB8BFE418FFF7D8FF1D4A13681D
:1013580033B9636014602846BDE83840FFF7D4BF4E
:10136800A34208D9206821188B4201BF19685B681D
:1013780009182160EDE71A465B680BB1A342FAD958
:1013880011685018A0420BD12068014450188342BC
:101398001160E0D118685B68536008441060DAE7B0
:1013A80002D90C232B60D6E7206821188B4204BF92
:1013B80019685B68636004BF091821605460CAE754
:1013C80038BD00BFC8010020024B58221A604FF0F8
:1013D800FF307047CC010020024B58221A604FF0B2
:1013E800FF307047CC010020024B58221A604FF0A2
:1013F800FF307047CC010020044A05491368002BD0
:1014080008BF0B461844106018467047D0010020EA
:10141800D4010020024B58221A604FF0FF30704769
:10142800CC010020FEE700BF000000000000000023
:101438000102030406070809000000000102030472
:1014480001020304060708093E410C4111412741E6
:1014580036410341064115410F410E4126411341D2
:101468002941024119410A410B4100003E410C410A
:101478001141274136410341064115410F410E41B3
:10148800264113412941024119410A410B410000FB
:1014980000000000F8B500BFF8BC08BC9E467047C5
:0C14A800F8B500BFF8BC08BC9E467047B9
:0814B400D4ECFF7F01000000F1
:0414BC00A10A000879
:0414C000790A00089D
:1014C400007A030A0000000000000000030000008E
:1014D4008000002018000020000000008000002090
:1014E400E80000205001002000000000000000007F
:1014F40000000000000000000000000000000000E8
:1015040000000000000000000000000000000000D7
:1015140000000000000000000000000000000000C7
:0415240000000000C3
:0400000508000AFDE8
:00000001FF
